:020000040800F2
:100000009008002089010008431E0008771D0008A1
:10001000411E0008490300081128000800000000E4
:10002000000000000000000000000000692300083C
:10003000F503000800000000D92000086B23000829
:10004000A3010008A3010008A3010008A301000800
:10005000A3010008A3010008A3010008A3010008F0
:10006000A3010008A3010008A3010008A3010008E0
:10007000A3010008A3010008A3010008E903000888
:10008000A3010008A3010008A3010008A3010008C0
:10009000A3010008A3010008A3010008A3010008B0
:1000A000A3010008A3010008A3010008A3010008A0
:1000B000A3010008F1230008A3010008A301000820
:1000C000A3010008A3010008A3010008A301000880
:1000D000A301000805280008A3010008A3010008E7
:1000E000A3010008A3010008A301000800F002F822
:1000F00000F03AF80AA090E8000C82448344AAF188
:100100000107DA4501D100F02FF8AFF2090EBAE885
:100110000F0013F0010F18BFFB1A43F0010318473B
:10012000303C0000503C0000103A24BF78C878C131
:10013000FAD8520724BF30C830C144BF04680C60ED
:10014000704700000023002400250026103A28BF35
:1001500078C1FBD8520728BF30C148BF0B60704739
:100160001FB51FBD10B510BD00F058F81146FFF7C0
:10017000F7FF02F0A3FB00F076F803B4FFF7F2FFFD
:1001800003BC00F07DF8000009488047094800479B
:10019000FEE7FEE7FEE7FEE7FEE7FEE7FEE7FEE737
:1001A000FEE7FEE704480549054A064B7047000094
:1001B000ED230008ED0000089002002090080020C8
:1001C00090040020900400204FF0000200B5134678
:1001D00094469646203922BFA0E80C50A0E80C5067
:1001E000B1F12001BFF4F7AF090728BFA0E80C5018
:1001F00048BF0CC05DF804EB890028BF40F8042B11
:1002000008BF704748BF20F8022B11F0804F18BF7D
:1002100000F8012B7047704770477047754600F033
:100220002BF8AE4605006946534620F00700854688
:1002300018B020B5FFF7B6FFBDE820404FF000062C
:100240004FF000074FF000084FF0000BAC46ACE851
:10025000C009ACE8C009ACE8C009ACE8C00921F0AD
:1002600007018D46704710B50446AFF30080204665
:10027000BDE81040FFF781BF004870471000002024
:1002800001491820ABBEFEE7260002007047B0B55A
:10029000044600688168C90701D10020B0BD8168AB
:1002A00021F00101816000F005FD054620688068AD
:1002B000C007F2D000F0FEFC401B0328F6D32068F4
:1002C0008068C007F2D0A06A40F01000A062E06A27
:1002D00040F00100E0620120B0BD0000BCB5044662
:1002E0000020019021688A68D2072CD1886840F0EC
:1002F00001008860814882490068B0FBF1F00190FC
:10030000019810B101980138F9E700F0D3FC0546D7
:1003100020688068C0071CBF0020BCBD00F0CAFC7C
:10032000401B0328F4D320688068C007F0D1A06A7E
:1003300040F01000A062002084F82400E06A40F041
:100340000100E0620120BCBDFEE7000080B504486A
:100350000C2101F039FA23480021016080BD00BF63
:10036000B001002080B51C48007803F00FF9044A62
:10037000044B03F097F903F0C5F81A49086080BDF3
:10038000CDCCCCCCCC7A8440F8B5044620B1012C3D
:1003900018BFF8BD002500E00125B54E0B4F102118
:1003A0002A463046B847304620212246B8473046D4
:1003B0004FF480712A46B84706F580600121224635
:1003C0003B4601B0BDE8F040184700BFAB0C000849
:1003D00001490870704700BF0C000020014800214F
:1003E00001607047402C0140014800F0A3BA00BFF3
:1003F0006C0100207047EFF3108072B6FEE700003A
:1004000078B50022009290F82420012A01D102211F
:1004100057E04C68012280F82420062C0ED804EB0B
:1004200084030A681F25053B02FA03F49D40036814
:100430005E6B26EA05052C435C6317E0036804EB5A
:1004400084020C2C09D8A2F1230401F00DFE1E6BCE
:1004500026EA04042C431C6308E0A2F1410401F0E5
:1004600003FEDE6A26EA04042C43DC6202EB42044B
:10047000092A19D989681E3C0725A14005FA04F408
:10048000DD6825EA04042143D96022F00101102926
:1004900013D11949A1F10804A34214D0816A41F093
:1004A00020018162012109E007221D698968A240BB
:1004B00025EA0202A140114319610021002280F8BF
:1004C0002420084678BD0B681B02F6D40B68102A5E
:1004D00043F400030B60F0D1AC49094A0968B1FB51
:1004E000F2F101EB81014900009100990029E4D06B
:1004F00000990139F8E700BF0824014008000020F6
:1005000040420F000068C06C70470000B0B5002882
:100510006FD00446806A30B9002084F82400E0627D
:10052000204600F071F82046FFF7B1FEA26AA16AEA
:10053000D20623D410BB41F2021021EA000002309F
:10054000A062D4E90101E269237B10434A1EB2FA9A
:1005500082F240EA430055090A46B1F5807F18BF90
:100560002A02257D012D12D163B1A36A43F0200335
:10057000A362E36A43F00103E36208E041F0100084
:10058000A06236E0A3691C4D05EB43331A43236890
:100590005D6825F469452A43184D5A609A682A40D7
:1005A0000243B1F5807F9A6001D0012904D121690D
:1005B000134A02EB015100E00021DA6A22F47002D2
:1005C0001143104AD96299681140814207D1002035
:1005D0000122E062A16A62F30101A162B0BDA06ADA
:1005E00040F0100020F00200A062E06A40F001003C
:1005F000E0620120B0BD00BF00E8FFFFFDF7E1FFB2
:100600000000F0FFFE0E1FFFFEB501F056FC15497D
:10061000884210D01449884221D11448016841F41D
:1006200000710160016801F400710191019901F00C
:100630000EFC04200CE00D48016841F4806101606B
:10064000016801F480610191019901F000FC08202A
:100650000321CDE90201064802A900F049FA06B0DB
:1006600080BD00BF00280140002401401810024056
:10067000000801402DE9FC4100260D460446019684
:1006800000F018FB804620688168C90528D44168BD
:10069000C90503D4C16A11F4700F2AD03B4806681B
:1006A000022000F0ABFB2168B6FBF0F0394E384B6E
:1006B0000A69324203D1CA68374E32422ED00A69E3
:1006C0001A4203D1CA68354B1A4231D00E69344BF5
:1006D000FC221E422DD1C968194208BF542228E0CD
:1006E00084F82460A06A40F02000A0620120BDE8E8
:1006F000FC816F1C0168890731D4002FFAD035B115
:1007000000F0D8FAA0EB08012068A942F2D90168EC
:100710008907EFD401F06AFCBDE8FC810E6929224B
:100720001E4206D1C9681D4B194208BF142200E0C1
:10073000542202FB00F76E1C0198B8420ED24EB153
:100740002DB100F0B7FAA0EB0800A84202D9019839
:10075000B842DFD3019801300190EDE720686FF0D7
:1007600012010160A16A41F40071A162806800F485
:100770006020B0F5602F06D1207B20B901F0A0FCED
:1007800001D401F08BFC0020BDE8FC8108000020B2
:100790009224491224499224244992009224490027
:1007A00049922400B0B501F0FBFB04BF0220B0BDAC
:1007B00001F08AFB18B1002184F82410B0BD206834
:1007C000A16A40F20132914301F58071A1621D4995
:1007D00001F57F72904205D0A36A23F48013A362CF
:1007E000436808E00B6813F4702FF5D0A36A43F454
:1007F0008013A3620B685B0504D5A36A012565F32A
:100800000D33A362A36A0025DB0444BFE56A25F02B
:100810000605E5626FF002050023056001F00DFC9E
:1008200005D1904207D1096811F4702F03D0816877
:1008300041F4801102E0816841F4A0018160002050
:10084000B0BD00BF0424014010B501F0A9FB04BFF6
:10085000022010BD01F005FB28B9A16A41F2011286
:1008600091430131A16201F0D4BB10B590F8211081
:10087000022912D10168D0E90F230C6824F00E047C
:100880000C600C6824F001040C60012101FA03F3F0
:10089000536080F82110002102E0042181630121CE
:1008A000002280F82020084610BD0000B0B590F866
:1008B000211002291CD10368654C01221968A3424A
:1008C00021F00E011960196821F0010119605F49DA
:1008D00012D0604CA34211D05F4CA34210D05F4CA9
:1008E000A34210D05E4CA34210D14FF4803415E0E7
:1008F0000421816301211BE001240FE010240DE09D
:100900004FF480740AE04FF4805407E001F1680569
:100910004FF08074AB4208BF4FF480140C6000218C
:1009200080F8201080F82120426B0AB19047002106
:100930000846B0BD70B5D0E90F230168146824FAE9
:1009400003F56C070C6801D5660717D4AE0701D50F
:10095000A6072DD42D0778D5240776D50C6824F06A
:100960000E040C60012101FA03F35360002281633D
:1009700080F8202080F82110016B62E00A6892065E
:1009800003D40A6822F004020A60314B2F4A9942CC
:100990002BD0304B99422AD02F4B994229D02F4B44
:1009A000994229D02E4B994229D14FF480232EE031
:1009B0000A68920606D40A6822F00A020A60012236
:1009C00080F82120224B214A994223D0214B994281
:1009D00022D0214B994221D0204B994221D0204B4B
:1009E000994221D14FF4003326E004230FE0402345
:1009F0000DE04FF480630AE04FF4804307E002F11A
:100A000068044FF08063A14208BF4FF48003136075
:100A1000C16A16E002230FE020230DE04FF40073BB
:100A20000AE04FF4005307E002F168044FF000734E
:100A3000A14208BF4FF40013002180F8201013607A
:100A4000816A11B1BDE87040084770BD04000240E2
:100A5000080002401C0002403000024044000240F6
:100A6000580002400146012061B32DE9F043022203
:100A700001F10C0E43F6F07481F8212091E8040393
:100A80009EE8E0501368A3430F4C43EA080343EA8F
:100A900009032B4333433B4343EA0C0343EA0E036E
:100AA000136000238B6381F82030084B1A44142311
:100AB000B2FBF3F29200C1E90F4281F8210000205D
:100AC000BDE8F043704700BF00000240F8FFFDBFE3
:100AD000B0B5044600F0EEF805469448611C007875
:100AE00018BF044400F0E6F8401BA042FAD3B0BDA2
:100AF0002DE9FC4F5E4A04234FF0000A4FF0010835
:100B00004FF00009904208BF0323009300250C68B2
:100B100034FA05F208BFBDE8FC8F08FA05FE14EAB6
:100B20000E0F00F0A1804F68032F16D9112F26D089
:100B3000122F28D0514A974213D0514A974210D0D1
:100B4000504A97420DD0504A97420AD04F4A974296
:100B500007D04F4A974204D022E0DFE807F002189E
:100B60001B1F8C6844B1012C14BFC0F814E0C0F8FE
:100B700010E04FF0080913E04FF0040910E0CC68D2
:100B800004F104090CE0CC6804F10C0908E0D1F888
:100B90000C9005E0CC6804F1080901E04FF0000971
:100BA00054460746082D4FF00F0228BF203C28BFAF
:100BB00004373B6802FA04F609FA04F4B34323430A
:100BC0003B60CB79DB064FD5674A2A4C1368A4F506
:100BD0007E7C43F00103136013682E4A03F0010387
:100BE00090420193019B25F003035CF803B008D009
:100BF000294A904207D0294A009E904208BF022607
:100C000002E0002600E001260AF00C030F22AF08E4
:100C100002FA03F406FA03F3164E174A2BEA040409
:100C200023434CF827304F68FB02B36854BF23EAD4
:100C30000E0443EA0E04B460BB02136854BF23EAF7
:100C40000E0443EA0E041460BB03736854BF23EA26
:100C50000E0443EA0E047460FB03336854BF23EAB6
:100C60000E0243EA0E0232600AF1040A01354EE731
:100C700000140140000401400C0401400000111068
:100C8000000012100000211000002210000031109E
:100C90000000321000080140000C0140001001402B
:100CA0008068084018BF01207047002A08BF090467
:100CB0000161704705480068704700BF1B48034941
:100CC00000780A6810440860704700BF880200205E
:100CD00080B50748016841F010010160032000F071
:100CE0007DF80F2000F006F800F022F8002080BD0B
:100CF0000020024070B50D4E04464FF47A713078F2
:100D0000B1FBF0F0F2490968B1FBF0F000F0A4FB90
:100D100001250F2C08D838B94FF0FF3021460022AA
:100D2000002500F035F87460284670BD00000020F2
:100D300082B00D480222016841F0010101600168A2
:100D400001F0010101910199416841F08051416038
:100D5000406800F08050009000980448016862F3F9
:100D60001A61016002B0704718100240040001408F
:100D7000002809D4734601F0B5F89E46034A42EABA
:100D8000D00020F003000160704700BF00E100E0E8
:100D9000F0B5184B4FF0FF361C68C4F30224E51E73
:100DA00084F0070438BF002506FA05F7BA43042C7F
:100DB00028BF042406FA04F4A14300F00F04A9405C
:100DC000043C1143044A234409010244002848BF5B
:100DD00003F10C021170F0BD00E400E005494FF68C
:100DE000FF030A681A4060F30A22034810430860B0
:100DF000704700BF0CED00E00000FA0580B5012847
:100E000010D0022822D010281ED124494A68086830
:100E1000C00119D5C2F3834021A3D203185C1FD4AB
:100E2000CD4A25E01D49086A00F44072B2F5407FC2
:100E300027D0B2F5007F29D0B2F5807F02BF4FF4F2
:100E4000004101EA803080BD002080BD00F04EF9F5
:100E5000124902224968C1F3813102EB41010DE0E0
:100E60004A6813A3C2F340429A5CB54BB3FBF2F25B
:100E700049685043490203D440000321B0FBF1F01C
:100E800080BD08684FF22441800303E0486A49F6B8
:100E90004041800701EAE07080BD00BF00100240C1
:100EA00002030405060708090A0B0C0D0E0F1010AB
:100EB000010200002DE9FC41044600789F4EC00766
:100EC00043D0B06910F0805808D1B06940F080502C
:100ED000B061B06900F08050019001982C4F3868E3
:100EE000C00511D4386840F480703860FFF7E2FE26
:100EF00005463868C00507D4FFF7DCFE401B6428B0
:100F0000F7D90320BDE8FC81F06910F440700FD0E0
:100F1000616801F4407188420AD01E49F0690122DB
:100F20000A6000220A6020F44071C007F16120D1FC
:100F30006068F16921F440710843B8F1000FF06175
:100F400003D1B06920F08050B0612068810705D5D9
:100F5000A168326822F4404211433160C00605D5D1
:100F6000E068316821F48001084330600020BDE86A
:100F7000FC81FFF79FFE054641F28837F069800744
:100F8000D6D4FFF797FE411B0320B942F6D9EEE70E
:100F900000700040400442422DE9F84300286CD024
:100FA000884649490446086800F0070040450AD2CF
:100FB000086820F0070040EA08000860086800F0B0
:100FC0000700404559D120685C4B8946810711D5FF
:100FD000410703D5196841F4E0611960010703D5A1
:100FE000196841F460511960A1681A6822F0F00292
:100FF00011431960C00737D1D9F8000000F007008D
:1010000040450DD9D9F8000020F0070040EA08005B
:10101000C9F80000D9F8000000F0070040452CD1C5
:101020002068410705D5E1681A6822F4E06211439F
:101030001960000706D52069196821F4605141EA5A
:10104000C00018601C4600F05FF821681F4AC1F319
:101050000311515CC8402A4908601E480068FFF728
:1010600049FE0020BDE8F8836068022808D0012806
:1010700025D153F8041C890306D40120BDE8F88368
:1010800053F8041C8901F8D519681D4621F00301A5
:1010900008431860FFF70EFE064641F28837606885
:1010A00029682B4601F00C01B1EB800FA4D0FFF7AB
:1010B00001FE801BB842F2D90320BDE8F88353F843
:1010C000041C8907D9D5DFE700200240163D00083F
:1010D0000800002004000020DD481849094A006883
:1010E0000968C1F30221515CC8407047D8481349D0
:1010F000044A00680968C1F3C221515CC8407047C6
:1011000008000020263D000810B50C490C480A686C
:1011100002F00C03082B07D1C2F3834309A4D203C6
:10112000E35C02D40C48584310BD096809A2584337
:10113000C1F34041515CB0FBF1F010BD041002401E
:1011400000127A0002030405060708090A0B0C0DB9
:101150000E0F10100102000000093D002DE9FC41B6
:10116000002800F09C8004460078B74EC0071FD0CE
:10117000706800F00C00042814D000F016FF02D1B3
:101180007068C0030ED46068002800F01481B0F5C8
:10119000A02F00F02181B0F5803F00F0218100F008
:1011A00066FE20E13068800302D56068002876D0B2
:1011B0002078800716D5706810F00C0F05D000F06D
:1011C000F4FE24D17068C00321D43068800702D5B2
:1011D0002069012863D16069316821F0F80141EA92
:1011E000C00030602078000741D5A06910B397484F
:1011F0000121C0F88014FFF75DFD0546706A800785
:1012000028D4FFF757FD401B0228F7D9F8E02169E1
:101210008E48002900F08E8001210160FFF74AFD11
:10122000054630688007D6D4FFF744FD401B0228EE
:10123000F7D9E5E085480021C0F88014FFF73AFDB2
:101240000546706A800712D5FFF734FD401B02285F
:10125000F7D9D5E07E484FF4FA510068B0FBF1F0C1
:10126000019000BF0198411E00280191F9D120781A
:10127000400717D4E7697FB100F097FE3CD1012FFA
:101280000DD0216A706800F480328A4207D1616A09
:1012900000F47010884202D10020BDE8FC810120DA
:1012A000BDE8FC81F06910F0805808D1F06940F089
:1012B0008050F061F06900F0805000900098654F18
:1012C0003868C0050FD4386840F480703860FFF784
:1012D000F1FC05463868C00505D4FFF7EBFC401B60
:1012E0006428F7D98CE0E068A0B3052844D0012831
:1012F00046D000F0EFFD46E05449002088460866DD
:10130000FFF7D8FC0546022F0AD147463068800116
:1013100079D5FFF7CFFC411B03200229F6D9BCE7A2
:1013200030688001B8D5FFF7C5FC411B03200229B6
:10133000F6D9B2E700210160FFF7BCFC0546306832
:1013400080077FF54FAFFFF7B5FC411B0320022953
:10135000F5D9A2E700F0BEFD3062FFF7ABFC054611
:1013600041F28837306A80071CD5FFF7A3FC411B88
:101370000320B942F6D990E7306A40F004003062A9
:10138000306A40F001003062FFF794FC054641F2FC
:101390008837306A800705D4FFF78CFC401BB842C1
:1013A000F7D92DE0B8F1000F7FF464AFF06920F0B9
:1013B0008050F0615EE700F05AFD3060FFF77AFC84
:1013C0000546306880037FF5F3AEFFF773FC411BE1
:1013D00003206429F5D960E7306840F4802030604C
:1013E000306840F480303060FFF764FC05463068B8
:1013F00080033FF5DDAEFFF75DFC401B6428F6D9A6
:101400000320BDE8FC81206AB0F5803F05D1A168CA
:10141000726822F4003211437160616A726822F4CA
:10142000741211430843706001203866FFF742FCD4
:101430000446306880013FF52FAFFFF73BFC011BEE
:1014400003200229F5D928E700100240000042429B
:101450000800002000700040411E0020B0EB116F1A
:101460001CBF01207047044AF023516003490B70F0
:10147000072190601160704710E000E023ED00E06C
:1014800070477047F0B5024690F83C00012804BF51
:101490000220F0BD01F10807D1E900C44B6900202A
:1014A000C969E0CF82F83C00126826F47C5624F427
:1014B000F04425F4705535432C432CF4E0452C437F
:1014C00027F4C0452C43234323F48043194351643C
:1014D000F0BD000010B590F83C300222012B20D066
:1014E00080F83D2002680B68546824F070041C43A7
:1014F0009368B2F1804F546008D0D54CA24205D019
:10150000D24CA24202D0D34CA24204D1496823F06B
:101510008003194391600022012180F83C2080F86B
:101520003D10104610BD00BF704710B5044600685E
:101530000169890712D5C16889070FD56FF00201CB
:101540000161012121778069800702D000F089FDC7
:1015500001E000F054FD0020207720680169490770
:1015600013D5C168490710D56FF00401016102214C
:101570002177806910F4407F02D000F072FD01E015
:1015800000F03DFD0020207720680169090712D591
:10159000C16809070FD56FF00801016104212177A7
:1015A000C069800702D000F05CFD01E000F027FD7B
:1015B0000020207720680169C90613D5C168C906D3
:1015C00010D56FF01001016108212177C06910F476
:1015D000407F02D000F045FD01E000F010FD00204A
:1015E000207720680169C90709D0C168C90706D0FA
:1015F0006FF001010161204600F07CF9206801696B
:10160000090609D5C168090606D56FF08001016198
:101610002046FFF735FF20680169490609D5C168F2
:10162000490606D56FF040010161204600F063F9DC
:1016300020680169890602D5C168890600D410BDF9
:101640006FF0200101612046BDE81040FFF719BF8F
:10165000FEB500F032FCA549884208D0A249884274
:1016600011D14A4800F0F3FB4FF4006003E0474813
:1016700000F0EDFB40200221CDE902010348059175
:1016800002A9FFF735FA06B080BD00BF000801408F
:1016900070470000B0B500F0FCFC04BF0220B0BDF4
:1016A00000F0D7FC37D8DFE801F0020A12222068E8
:1016B000294600F0EBFE206850F8181F0EE0206865
:1016C000294600F009FF206850F8181F16E020682E
:1016D000294600F02DFF206850F81C1F41F008013A
:1016E0000160016821F00401016029690FE02068B0
:1016F000294600F047FF206850F81C1F41F40061A4
:101700000160016821F480610160296909020268B1
:10171000114301600020002184F83C10B0BD58B195
:1017200010B500F085FC03D100F058FC00F006F87D
:1017300000F0B9FC00F0DDBB01207047E0B50068A7
:101740006A4988420DD06849884209D10F4801682A
:1017500041F400610160006800F4006001900198AC
:101760008CBD0A480022416841F00201416000211D
:10177000406800F00200009000981D20FFF708FB71
:101780001D20BDE88C40FFF7F3BA00BF18100240DF
:1017900010B50C494B888A680C789A4203D214B968
:1017A000501C88600CE05CB99A4209D301220A708F
:1017B00000228A6001684A63BDE81040FFF7AFBFAE
:1017C00010BD00BFDC00002010B50446B9B10829E7
:1017D00006D0042914BF04F1410004F13F0001E0E8
:1017E00004F140000078012811D10220082910D00E
:1017F000042914BF84F8410084F83F000BE094F8FA
:101800003E00012803D1022084F83E0003E00120BD
:1018100010BD84F84000206800F0BCFB206832490D
:10182000884201D100F0D5FBB0F1804F07D02F4A9C
:10183000904204D0884202D02D49884202D100F063
:1018400088FB01D000F043FC002010BD002C0140BB
:10185000000400400008004010B5044641B10829CA
:101860000ED0042914BF04F1410004F13F0009E047
:1018700094F83E00012833D1022084F83E0010E0A5
:1018800004F14000007801282AD10220082906D05E
:10189000042914BF84F8410084F83F0001E084F873
:1018A00040004FEAB10003281AD80E4A00F060FB4E
:1018B00020680D49884201D100F08BFBB0F1804FC8
:1018C00007D00A4A904204D0884202D00849884290
:1018D00002D100F03EFB01D000F0F9FB002010BD6A
:1018E000012010BD303D0008002C014000040040E4
:1018F0000008004070477047704770477CB5044649
:1019000000680268C168456913073FD001F490760A
:1019100005F0010576193DD0D60705D0CE0503D5D3
:10192000666C46F001066664560704D51DB1666C08
:1019300046F002066664960704D51DB1666C46F053
:1019400004066664002B07D501F020035B1903D061
:10195000636C43F008036364636C002B00F0E08069
:10196000920605D5890603D5204600F054FE20686E
:101970004069616C00F0400001F00801401847D157
:101980002046FFF7BAFF00206064C9E0930601D546
:101990008B0654D4236B012B03D1D30601D5CB0680
:1019A00052D4130601D50B0611D4520640F1B8806B
:1019B000490640F1B580C16821F04001C160202096
:1019C00084F841002046BDE87C4000F0D3B994F88B
:1019D0004110212940F0A480A168B1F5805F03D1B6
:1019E0002169002900F09D80216A4A1C2262097841
:1019F0004160E18C0139E184090440F09180C168C3
:101A000021F08001C160C16841F04001C1607CBD2E
:101A1000204600F0DFFD00F0B4FA4DD500F080FA6A
:101A2000FCD1E06B002847D042494163FEF73EFFFE
:101A3000002875D0E06B416BBDE87C40084720462C
:101A4000BDE87C4000F0E7BD0021019101680191F3
:101A50004168019101994069400632D4E08DA18D21
:101A6000E28D002A5CD081425AD0081A216851E8E0
:101A7000031F226821F4907142E80313002BF5D173
:101A8000216851E8051F226821F0010142E8051391
:101A9000002BF5D1202184F8421000212163216818
:101AA00051E8031F226821F0100142E80313002BC4
:101AB000F5D1022161632DE02046BDE87C40FFF7AF
:101AC0001CBFE06B016849688AB24AB3A38D9A4291
:101AD00026D2E1858069202817D000F056FA20F43C
:101AE000807000F0B2FAF8D100F0C9F9FCD100F032
:101AF00017FAFCD1202084F842000020206300F077
:101B000059FAFCD1E06BFEF7B0FE02206063A08DB5
:101B1000E18D401A81B22046BDE87C40FFF7ECBE63
:101B20007CBD216A31F8022B6FF35F222162426093
:101B30005FE700BFC925000890B110B5044690F8D2
:101B4000410008B900F0B6FA00F067FA20680169B0
:101B500021F490410161416921F02A0100F08BBA22
:101B6000012070472DE9F04186B0044600684149E4
:101B70000026CDE90466CDE9026688424AD03E4996
:101B8000884273D13E4FA34D0DF108084146386895
:101B900040F480403860386800F48040019001983B
:101BA000386840F004003860386800F004000190A4
:101BB00003200590022003904FF4007002900198DA
:101BC0002846FEF795FF4FF48060002641460290BC
:101BD0002846CDE90366FEF78BFF2A4D8020A7F546
:101BE0007C61C5E902602846C5E90016C5E90466BE
:101BF000C5E90666FEF736FF08B1FEF7FCFB2520B7
:101C0000012100226C62E563FFF7C2F82520FFF78F
:101C1000AFF82BE01948016841F4802101600068A9
:101C200000F48020019001981548016841F00801F6
:101C30000160006800F00800019003200590022078
:101C400003904FF480600290019802AD71482946DC
:101C500000F580642046FEF74BFF4FF400602946F4
:101C6000CDE9036602902046FEF742FF06B0BDE8CC
:101C7000F08100BF00480040003801401C100240C5
:101C8000181002406C01002010B590F84230202B53
:101C900006D139B132B10024046300F05DFD02E0E9
:101CA000022400E00124204610BD0000064900681F
:101CB0000A6B904218BF704701F1300003490822B7
:101CC0003431FFF7E1BF00BFF400002070000020B6
:101CD0002DE9F843044690F8410020281CBF02205B
:101CE000BDE8F8838846B1B11746A2B100201D4671
:101CF0006064212084F84100FEF7DCFFE78406469B
:101D0000A784A068B0F5805F01D1206930B14FF0A1
:101D10000009474604E00120BDE8F8830027C146DA
:101D2000E08CB8B12046802132462B4600F02DFDD4
:101D3000B8B927B117F8010B2168486006E039F8F7
:101D4000021B206800276FF35F214160E08C01389F
:101D5000E084E5E72046402132462B4600F015FDA1
:101D600010B10320BDE8F883202084F84100002052
:101D7000BDE8F8837047FEE7B0B52F4C2F4D00F05B
:101D800023F900F08BF820464FF4004100222B4647
:101D9000BDE8B040184700BF27484FF4004100227B
:101DA000FEF783BFB0B5244C244D00F00DF900F0D0
:101DB00075F820464FF4004101222B46BDE8B040A3
:101DC000184700BF1C484FF480410022FEF76DBF4A
:101DD000B0B5194C194D00F0ADF800F05FF8204691
:101DE0004FF4004100222B46BDE8B040184700BF29
:101DF00010B5084C4FF48041002204F58060FEF7D6
:101E000054FF20464FF400410022BDE81040FEF789
:101E10004CBF00BF00080140B0B5074C074D00F0B3
:101E200089F800F03BF820464FF4004101222B4690
:101E3000BDE8B040184700BF000C0140AB0C0008E3
:101E4000FEE7FEE74FF033322B4601F0DABD0168C2
:101E500041F004010160006800F004000190019865
:101E60007047012084F824002046FEF710BA30683D
:101E700020F480303060306820F480207047206883
:101E800050E8050F216820F0010041E80502002A12
:101E9000704728464FF48071FEF702BFA4F58060BA
:101EA00080210022284730464FF49671FEF7E2BBAE
:101EB0004FF033322B4601F096BD00210068CDE98A
:101EC0000411CDE902117047012084F82400204656
:101ED000FEF704BA306A20F001003062306A20F068
:101EE0000400704700F01F010122C0B202FA01F1A4
:101EF0007047012084F8460084F83E0084F83F00D3
:101F000084F8400084F8410084F8420084F84300DB
:101F100084F8440084F8450084F83D00002010BD9A
:101F2000206850E8050F216820F0400041E80502D4
:101F3000002A70474FF4804101222046284701685B
:101F400051E8051F026821F0010142E80513002B4A
:101F50007047816801F0070106297047016851E860
:101F6000031F026821F0100142E80313002B7047A1
:101F700052F820202068C3681A43C260012200F092
:101F800075BA2068406940067047206850E8030F22
:101F900021687047012200F069BA022000F09EB863
:101FA000044690F8240001287047706800F00C0087
:101FB00008287047206850E8030F216820F01000BF
:101FC00041E80302002A70474FF480410022204676
:101FD00028474A6C42F400424A647047002084F863
:101FE0003C0020467047012000F078B8002084F8BB
:101FF0002400A06A40F00400A062032070474DF85E
:1020000008ED2046FFF744FB20465DF808EBFFF79C
:10201000BFBB002184F8241010BD242084F84100A7
:102020002068C16821F40051C160204600F052BB15
:10203000044690F83D000028704784F824308368F7
:1020400003F46023B3F5602F704741E80302002AD0
:1020500070470D4601204FEAB201032984F83C0085
:1020600070472046FFF760BA0A681F2602FA04F597
:1020700006FA04F470474161C16841F40051C1603F
:1020800000202021606484F8411084F842106063CD
:1020900010BD044690F83C0001287047A06A40F04B
:1020A0000100A06270470220211D84F83D002068D5
:1020B00000F0A4B9002084F840002046FFF752BD8C
:1020C000A06A20F48070A062A06AC0047047016812
:1020D00041F0010101607047704700002DE9F84FA1
:1020E000012835D002286BD13B48394E394C0027A6
:1020F0000025814639488246394880463046FEF7F9
:1021000051FBFFF7D0FE3046FEF7FCF9208080B28D
:1021100001F025FA00224B4601F02EF800F0EEFF08
:1021200001F0BEFB4FF06632534601F0BBFA00F0FF
:10213000E5FF60603046FEF787FB6168284601F0E6
:10214000DBFB0546781C142F0746D7D3414639E000
:102150002148244EDFF87C800027002582461F4856
:1021600083461F4881463046FEF71CFBFFF79BFE67
:102170003046FEF7C7F9A8F8000080B201F0EFF989
:102180000022534600F0F8FF00F0B8FF01F088FB92
:102190004FF066325B4601F085FA00F0AFFF04466F
:1021A000C8F804003046FEF74FFB2846214601F0F0
:1021B000A3FB0546781C142F0746D4D3494601E0FB
:1021C00000210025284601F023FCBDE8F88F00BF60
:1021D000F4000020EC00002000FEAF4066660A40DC
:1021E0000000A841AC00002080B50138032806D8C3
:1021F000DFE800F00206090C0B4808210BE010E0B4
:102200000948042107E00848802102E006484FF40D
:10221000807100F58060FEF743FD0138B0FA80F070
:102220004009C0B280BD00BF0008014005484FF41E
:1022300000510122FEF739BD02484FF4005100223F
:10224000FEF733BD001001402DE9F04385B025486D
:1022500002264FF000094FF00108234C234F01687C
:1022600041F010010160016801F010010191019934
:10227000016841F020010160016801F02001019135
:102280000199016841F004010160016801F0040155
:1022900001910199016841F008010160006800F0B6
:1022A0000800019001980496CDF80C90CDF80880B4
:1022B0004FF40050019001AD04F580602946B84705
:1022C000049601A8294680E840032046B8474FF409
:1022D00080702946CDE9029601902046B84705B0A6
:1022E000BDE8F08318100240000C0140F10A00081C
:1022F000B0B58AB0044647201A4A002560605A48A3
:10230000CDE90855A560A5612561CDE90655CDE962
:1023100004552060C82048431149B1FBF0F0410842
:102320000138E06020465160FFF7F9F908A920461E
:10233000FFF7D0F860200595CDE902550022019005
:1023400001A92046FFF7A6F92046FFF781F92046AC
:102350000021FFF781FA206845630AB0B0BD00BFD5
:1023600000879303DC0000207047FEF7A7BCB0B5E0
:1023700094B04FF4E0100024022513904FF4803005
:10238000CDE90F44CDE90D4411950494CDE9024403
:102390001290CDE90B0401200A900E900AA8FEF7D6
:1023A000DDFE18B1EFF3108072B6FEE74FF48060E7
:1023B00009940221CDE907400F20CDE9050505A8C4
:1023C000FEF7EAFD18B1EFF3108072B6FEE74FF4A6
:1023D000004003900220019001A8FEF76BFD18B1A8
:1023E000EFF3108072B6FEE714B0B0BD7047000086
:1023F0000148FFF79AB800BFF801002070B5714A94
:102400000368904216D0B0F1804F05D0154CA04221
:1024100002D0154CA04203D14C6823F07003234333
:10242000B0F1804F0AD00F4CA04207D00E4CA04212
:1024300004D007E04C6823F070032343CC6823F4F6
:10244000407323434E6923F080030C688D68334347
:1024500090420360C562846201D109691163012160
:10246000416170BD000800400004004010B501F05B
:102470001F010123046A8B4002FA01F124EA0303DD
:102480000362026A1143016210BD0000F0B5036AE5
:10249000026A4C4E22F0010223F0020302628C68B1
:1024A0000A68456823438469B0420CD1D1E90576B6
:1024B00025F44075D1F80CC023F00C033D4335439F
:1024C0002CF00406334324F07304456022438261F8
:1024D000496841630362F0BDF0B5036A026A394E90
:1024E00022F0100223F02003B04202628C680A68D6
:1024F000456843EA041384690FD1D1E9057625F4D0
:102500004065D1F80CC023F0C0033E4345EA860580
:102510006FF0400606EA0C16334324F4E6444560A7
:1025200044EA02228261496881630362F0BD00BF10
:10253000F0B5036A026A234E22F4807223F400731A
:10254000B04202628C680A68456843EA0423C469A1
:102550000ED1CE6825F4405CD1E9057523F44063C3
:102560003D43360240F2FF47BE434CEA0515334374
:1025700024F0730445602243C2614968C163036269
:10258000F0BD00BFF0B5026A036A0E4F23F480531A
:10259000B842036245680C688B68C66904D14F690C
:1025A00025F4804545EA8715456026F4E64545EA69
:1025B0000424C4614968016422F4005141EA0331F2
:1025C0000162F0BD002C0140406A0021C185C18438
:1025D000FFF793B9016851E8031F026821F4907175
:1025E00042E80313002BF5D14DF808EDFFF7A7FCE7
:1025F0005DF808EBF8D1016B012906D14DF808ED23
:10260000FFF7ACFC5DF808EBF8D1202180F8421010
:1026100000210163704781B090F84210222920D137
:1026200083680246B3F5805F08D152F8281F52F83C
:10263000183C002B43D003685B6809E052F8281F60
:1026400013B90369002BF6D003685B6803F07F03BE
:102650000B70116801311160C18D0139C185090408
:1026600001D001B070470168CA6822F02002CA6038
:10267000CA6822F48072CA604A6922F001024A6183
:10268000202180F8421000214163026B012A1ED1F3
:1026900001634DF808EDFFF761FC5DF808EBF8D138
:1026A00001680A68D20606D5002200920A680092E4
:1026B000496800910099818D01B0FFF71DB902684A
:1026C00052686FF35F2221F8022B8162C4E701B0E8
:1026D000FFF7ECBAB0B50446006804F108030ECB6E
:1026E000056925F4405519432A4341F20C650261FE
:1026F000C2686369AA4319431143C1604169A26971
:1027000021F44071114341611149884202D0FEF722
:10271000E3FC01E0FEF7EAFC19214843D4E900128A
:102720000C4C9200B0FBF2F06422B0FBF2F303FB1E
:102730000400322404EB0010B0FBF2F000F0F002D1
:1027400000F00F0002EB031210448860B0BD00BF20
:10275000003801409CFFFF0F0023C2854364816263
:102760002221828580F842100168006918B1C8688A
:1027700040F48070C860486940F001004861C86852
:1027800040F02000C860002070472DE9F0411D4650
:1027900090460F4604465E1C206800683840B842E8
:1027A0001DD0002EF8D02DB1FEF784FAA0EB080062
:1027B000A842F1D9FFF7E9FB20F4D070FFF745FC00
:1027C000F8D1FFF75CFBFCD12020002184F8410008
:1027D00084F8401084F842000320BDE8F081002016
:1027E000BDE8F081E0B505490822142301910449B0
:1027F00000916946FFF76CFA8CBD00BF3131504C37
:10280000544437310148FFF779B800BF2401002054
:10281000FEE7000020B1012818BF7047002200E049
:10282000012224480221FEF740BA00BFF8B5044651
:10283000FFF702FD1E4E1F4D707890B9FFF729FB80
:1028400078B9FEF737FAF0604FF4C8701A4B0022DF
:102850007080204600F016FC204600F0F3FB0120BB
:10286000707042F20F77FFF714FB012809D0FEF7D2
:1028700021FAF168401AB84203D87088B1688142E1
:10288000F1D3FFF706FB012801D1012508E0FEF78F
:1028900011FAF1680025401A42F21071884204D3FF
:1028A000204600F01BFC002070702846F8BD00BFD9
:1028B000DC000020000C014000002E4094B0FEF728
:1028C00007FAFEF7F7F9DFF83C170861FFF74FFD4D
:1028D0004FF00008BF4FC04C4FF4D8710022CDF824
:1028E0001480386804F5823640F02000386038687B
:1028F00000F020000A900A98386840F00400386020
:10290000386800F004000A900A98386840F008001F
:102910003860386800F008000A900A983046FEF7E0
:10292000C4F904F5843B4FF2070100225846FEF734
:10293000BCF90224CDE90388DFF8CC963046029436
:1029400002AD2946C8474FF498704FF0010A294656
:10295000CDE9048402903046CDF80CA0C847802011
:1029600029460594CDE903AA029030469A4EC847FD
:1029700043F2070029460594CDE903A80290584682
:10298000C8474FF4404029460594CDE903AA029078
:102990005846C8474FF4CC702946CDE903840290CD
:1029A0005846C84757F8040C0021002240F00100A7
:1029B00047F8040C57F8040C00F00100029002984C
:1029C0000F20FEF7E5F90F20FEF7D2F9DFF83C56AD
:1029D00006F59A314FF4E132284640F8301F0C21B9
:1029E000C0E90128C0E90388C0E90518C0F81C80C7
:1029F000FFF7A2F818B1EFF3108072B6FEE7DFF828
:102A00001006DFF800764FF6FF7106F59432CDE937
:102A10001288CDF83480CDF82080C0E90028C0E9C4
:102A20000281C0E90488C0F81880FEF778FE18B16A
:102A3000EFF3108072B6FEE7DFF8D40512A9FEF7B7
:102A400049FD18B1EFF3108072B6FEE76020002454
:102A50000C220A90DFF8B8051094CDE90E44CDE9B8
:102A60000B440AA9FEF716FE18B1EFF3108072B6F8
:102A7000FEE7B14602AE14213046FDF7A5FB4FF448
:102A80000050314609940790DFF88405FEF7FAFC00
:102A900018B1EFF3108072B6FEE7DFF87405FEF7A9
:102AA000D7FDDFF8700500214FF6FF724E46CDE9E5
:102AB0000A11CDE90711CDE905118161C0E9009145
:102AC000C0E902120161FEF72AFE18B1EFF310808F
:102AD00072B6FEE7DFF83C050AA9FEF7FBFC18B169
:102AE000EFF3108072B6FEE760200024002202900F
:102AF000DFF820050694CDE9034402A9FEF7CAFDDC
:102B000018B1EFF3108072B6FEE7DFF80805FEF7A4
:102B10009FFD06F5903138460126B84640F83C1F27
:102B20004FF46021C161047506730661C0E9014478
:102B3000FDF7ECFC18B1EFF3108072B6FEE707204A
:102B4000CDE903600220029008F13C0002A9FDF7E4
:102B500057FC18B1EFF3108072B6FEE74FF4602017
:102B600009F592310124E86100202C732C6128754D
:102B7000C5E90010A8602846FDF7C8FC18B1EFF3BE
:102B8000108072B6FEE70720DFF88064CDE90340CD
:102B90000320029002A93046FDF732FC18B1EFF392
:102BA000108072B6FEE7DFF8700400240C214FF4A9
:102BB000E13209F58843C0E90032C0E90244C0E9C6
:102BC0000441C0E90644FEF7B7FF38B1EFF31080C7
:102BD00072B6FEE71810024000040040FFF734FB15
:102BE000DFF830041421FFF783FB5A2000F038FA95
:102BF0000020FFF70FFEFDF7A9FB0020FDF7C4FB47
:102C00005020FDF7E5FB06F1300007F13401082202
:102C10000190FFF739F8FFF70FFBD54DDFF820944F
:102C20004FF0010843F6982A38780728FCD8DFE8E7
:102C300010F0080042004B006700CC00F6000D01C8
:102C40001101FDF7CBFB0020FDF79EFBFFF7EEFA2D
:102C500058464FF400510022FEF727F8C7E9024416
:102C60003C613C623C717C70FFF786F8C820FDF740
:102C70002FFF97F834005428D6D197F83500442810
:102C8000D2D197F83A005028CED197F83B004C2883
:102C9000CAD197F836003028C6D197F837003128C6
:102CA000C2D197F838003128BED197F839003128C1
:102CB00000F0C980B8E7FFF7BFFA34203C2800F0E5
:102CC00018813C540130F9E7BC70FFF765F8FFF755
:102CD000A3F80320FFF788FA06463220FDF7F8FE36
:102CE0000320002E00F08781FFF77EFA00289BD09A
:102CF000032087F803803870F8680130F86093E7A4
:102D0000FDF730FB87F80580FDF7D4FFC7E9090020
:102D1000787900283FF488AFFDF7CCFF78627878A7
:102D2000F8B90220C847F8620120C847386302207A
:102D3000C84700F0B5FDFFF7BBF80028EFD13220FF
:102D4000FDF7C6FEFFF729F900F0AAFDFFF7B0F87E
:102D50000028E4D140F2EE20FDF7BAFE87F80180AA
:102D6000DDE7FFF740F900F09BFDFFF76BF870B966
:102D70003220FDF7ADFEFFF736F900F091FDFFF7C9
:102D800061F820B904207C713870786AB862FFF766
:102D900004F900F085FDFFF755F860B90220FDF752
:102DA00097FEFFF7FAF800F07BFDFFF74BF810B93C
:102DB00007207C713870D7E90901411A5145A7D322
:102DC000B86207207C713870A2E79620FDF780FE7C
:102DD000FDF704FBFE780020FFF71CFD5A2000F0F1
:102DE0003FF92EB18B4800F02DF94FF4FA7011E045
:102DF000FDF7B8FAFFF7F7F800F052FDFFF758F8C3
:102E00000028F5D14FF4FA60FDF762FEFDF7E6FA0F
:102E10004FF47A70FDF75CFE0520387004E7F8780F
:102E200084A1002880A008BF0146019808226423DD
:102E3000FEF74EFFFDF73EFFB8614FF47A70FDF7E5
:102E400047FEFEF799FF87F80080EDE6FEF794FF56
:102E50003C70E9E6FEF7CCFFFEF7BAFF019E304674
:102E6000FFF7C0FC30466DA108226423FEF730FF57
:102E70000120FDF789FAFDF775FAFDF71BFFF861F0
:102E80007861B87800287FF4CFAEFDF713FF97F88C
:102E900034107861542921D197F8351044291DD177
:102EA00097F83A10502919D197F83B104C2915D1B1
:102EB00097F836003028E4D197F837003128E0D170
:102EC00097F838003128DCD197F839003128D8D16B
:102ED000386A87F800800130386207E0F969401AE3
:102EE00043F699218842CCD387F8008087F8028086
:102EF000C7E70020FFF78EFC4648FFF797FC7C7081
:102F0000FDF76CFA0020FDF73FFABC70FEF75AFFA0
:102F1000FEF76EFFFEF746FFB87800287FF484AE18
:102F2000FDF7C8FE3861FFF738F8F862FFF75BF885
:102F3000386358464FF48071FDF7B2FE012802D184
:102F4000344800F0CBF8FFF728F800F0A9FCFEF7B2
:102F500079FF78B13869B96947F23052411A914224
:102F600017D9D7E902231A433FD10022002312E0E8
:102F70003333FB3F4FF47A70FDF7AAFD022002269F
:102F8000FFF7ACF800F08CFCFEF75CFF0028C3D123
:102F90002DE0D7E9022347F23156B14203D313B9EA
:102FA0000AB9002622E097F834005428B4D197F8E3
:102FB00035004428B0D197F83A005028ACD197F8A2
:102FC0003B004C28A8D197F836003128A4D197F8B7
:102FD00037003228A0D197F8380031289CD197F8D3
:102FE0003900312898D1062601E00626B86187F815
:102FF00002803E7090E73870B868FC700130B860AD
:1030000012E600BF70000020F10A0008F400002062
:10301000B0010020F8010020400200205444373164
:103020003131504C00000000544433303030504CAB
:1030300000000000544433313131504C0000000096
:10304000DD20000880B52C4900220A708A6049689A
:1030500002685163FEF763FBB0FA80F0400980BD5F
:1030600080B500F093FA1A4B002200F01BFB044BD2
:10307000002200F081F800F015FA1F49488080BD59
:103080000080764070B51946114B04461046002268
:1030900000F008FB0B460F490246002000F06CF8D8
:1030A00005460E4600F02EFA01380B4B3146002241
:1030B000E060284600F0F6FA00F024FA0E49486075
:1030C0002046FEF72CFBB0FA80F0400970BD00BF2F
:1030D00000006940389C8C410000E03F80B5064903
:1030E00001220A70002201684A63FEF718FBB0FA59
:1030F00080F0400980BD00BFDC00002021F00042CC
:1031000001F00043A2F16052B2F5801F28BFD2F156
:103110007F6C0BD95FEA001C43EAC20242EB50709D
:1031200018BF704728BF20F001007047B2F5801F1C
:10313000BCBF184670474FEA410C1CF5001F02D275
:10314000084600F06DBD70B500F056FB0000008928
:10315000FFF7F6BF4FF00040A0F580007047491020
:1031600058BFC1F140415B1058BFC3F140438B428F
:10317000EFF30080704700002DE9C04130B4DFF864
:10318000A4C23CEA111418BF3CEA131400F0ED800D
:103190001CEA111481EA030544EAD57418BF1CEA3D
:1031A000131500F0C880A4EB050404F17F7404F546
:1031B00000344FF0004545EAC12145EAC32341EA06
:1031C000505143EA52534FEAC0204FEAC22299427B
:1031D00008BF904200F09D804FEA13650FF244163D
:1031E000765D4FEA134506FB05F7C7F1807706FBCE
:1031F00007F74FEAD737A7FB03687642A7FB06CE4F
:10320000C8F5803838BFA8F1010807FB08E6A6FB1F
:10321000028C4FF0000EE6FB03CEDCF1000CCEF189
:10322000004E38BFAEF1010EA6FB0C584FF0000760
:10323000E6FB0E87A1FB08C6A0FB07CE16EB0E0629
:103240004FF0000545F10005E1FB076515F1E04E83
:103250007EBFA4F580345FEA46066D4116F1800713
:1032600045F100054FEA172747EA05674FEA15259C
:103270004FEA0666A6F1DE46B6F1805F20D93846F1
:1032800005EBC47124F0010C01EB0C11BCF1FE6FD5
:1032900002D8F0BCBDE8008124425CBF01F5801E6D
:1032A0009EEAC47F02D4F0BCBDE80081244200F154
:1032B0003980A1F1C041F0BCBDE8004100F0EABA9C
:1032C0004FEAD02040EA41504FEAD1214FEAD222C2
:1032D00042EA43524FEAD323A7FB028607FB036669
:1032E00005FB02661EEA0E0F58BFA6EB0056B6EBB2
:1032F00000564FEA520E4EEAC37E18EB0E0E56EB06
:10330000530EBCD518EB02085E417F1C55F1000539
:10331000B5E74FF480154FF000074FF000064FF06F
:103320000008ACE701F1C04101F000414FF000009E
:10333000F0BCBDE800810CEA131511EA0C1F00D0A7
:103340000CE013EA0C1F00F026804FF0000081EA29
:10335000030101F00041F0BCBDE80081F0BCBDE814
:10336000004181EA030100F095BAF0BCBDE80041DC
:1033700070B500F041FA00BF097EFC3E00F007B8CE
:103380004FF0000081EA030101F00041704781EA3B
:10339000030100F07FBAF0BCBDE8004122494FF0C4
:1033A00000007047FFFDFBF9F7F5F4F2F0EEEDEBEE
:1033B000E9E8E6E4E3E1E0DEDDDBDAD8D7D5D4D333
:1033C000D1D0CFCDCCCBCAC8C7C6C5C4C2C1C0BF7F
:1033D000BEBDBCBBBAB9B8B7B6B5B4B3B2B1B0AF85
:1033E000AEADACABAAA9A8A8A7A6A5A4A3A3A2A169
:1033F000A09F9F9E9D9C9C9B9A9999989797969524
:1034000095949393929191908F8F8E8E8D8C8C8BBF
:103410008B8A898988888787868585848483838247
:10342000828181800000FF070000F87F51EA030CD1
:1034300017D41CF5801F58BFBCF5801F00F1068013
:10344000994218BF704708BF9042704707D711F5DF
:10345000801F58BF13F5801F19D4994270478942C5
:1034600070471CF5801F08D5BCF5801FF7D58B422F
:1034700018BF704708BF824270474FF4001C1CEB16
:10348000410F38BF1CEB430F01D28B42704770B520
:1034900000F0B2F9922449004FF000514FF08053F0
:1034A000FFF75DBE4FEA41034FEA5353A3F5806334
:1034B000D3F11E03C8BFD3F1210C0CDD4FF0004245
:1034C00042EAC12242EA505232FA03FC8CEAE17C21
:1034D000ACEBE1707047102BC4BF0020704703F5C0
:1034E000787CBCF1FF3F04D06FF0004282EA2100FB
:1034F000704770B500F080F9499224800020704731
:10350000F2E700004FEA1153A3F58063D3F11E03E5
:10351000A8BFD3F1200C08DB4FF0004242EAC122E1
:1035200052EA505232FA03F0704709420BD4102B82
:10353000C4BF0020704703F5787CBCF1FF3F05D085
:103540004FF0FF3070474FF00000704770B500F04B
:1035500053F900BF4992248000207047F0E710F033
:10356000004248BF4042B0FA80F310FA03F10AD09B
:10357000C3F11D0303F5806302EB03524FEA415090
:1035800002EBD12170474FF000007047B0FA80F392
:1035900010FA03F10AD0C3F11D0303F580634FEA6B
:1035A00003524FEA415002EBD12170474FF0000027
:1035B0007047000051EA030C17D41CF5801F58BF58
:1035C000BCF5801F00F10680994218BF704708BF04
:1035D0009042704707D711F5801F58BF13F5801F21
:1035E00019D499427047894270471CF5801F08D54D
:1035F000BCF5801FF7D58B4218BF704708BF8242C9
:1036000070474FF4001C1CEB410F38BF1CEB430FFD
:1036100001D28B42704770B500F0EEF89224490059
:103620004FF080514FF00053FFF799BD51EA030C62
:1036300017D41CF5801F58BFBCF5801F00F1068011
:10364000994218BF704708BF9042704707D711F5DD
:10365000801F58BF13F5801F19D4994270478942C3
:1036600070471CF5801F08D5BCF5801FF7D58B422D
:1036700018BF704708BF824270474FF4001C1CEB14
:10368000410F38BF1CEB430F01D28B42704770B51E
:1036900000F0B2F8922449004FF000514FF08053EF
:1036A000FFF75DBD70B5DFF848C11CEA111E1EBFF3
:1036B0001CEA13159EEA0C0F95EA0C0F00F06F80C0
:1036C00081EA03044EEAD47EAE4421EA4C1123EA97
:1036D0004C1341F4801143F48013AEF17F7EA1FBC3
:1036E000024CA0FB0365361955EB0C05A1FB034CFE
:1036F0004CF10003A0FB021C16EB0C06654153F1D4
:103700000003094218BF46F0010613F4007F0BD1F5
:103710004FEA03314FEA053041EA155140EA1650AD
:1037200034036FF003020AE04FEAC3214FEAC520D9
:1037300041EA555140EA5650F4026FF0020202EBA2
:103740002E4201EB025585EACE710AD05FEA440CA5
:1037500018BF24F0004450F1000041F1000120EABC
:10376000D47040F2FE7C624500D270BDA84214BF06
:103770004FF080444FF04044002E08BF0024BEF1BB
:10378000806FA8BFA1F1C041BDE8704080F2828087
:1037900001F1C04101F000414FF0000070470CEA18
:1037A00013159EEA0C0F18BF95EA0C0F06D081EA9C
:1037B000030E4FF000000EF0004170BD00F01CF849
:1037C0008900013E00F007B800F009B84FEA430C49
:1037D0005FEA5C5C08D081EA030100F05BB84FEA65
:1037E000410C5FEA5C5CF6D102494FF00000704783
:1037F0000000FF070000F87F0EF1020E2EF0030E0E
:103800005EF8046B364205D4012A43EB030515F537
:10381000001F12D8012841EB010C1CF5001F0CD829
:103820000ED14FEAD17C0CEB4C0C0CF1020C15F5CF
:10383000001F08BF4CEBD37C04E04FF0080C01E004
:103840004FEAD37C0CEB4C0526FA05F606F007068A
:10385000B6F1040C06D20EEB860CBDE870404CF0BD
:10386000010C6047DFE80CF0090B02024FF0004149
:10387000A1F500214FF0000070BD19461046012847
:1038800051EB010418BFD4F5001484BF002001F0EF
:10389000004170BD0808A0F500114FEA31017047E2
:1038A00043004FEAD30C4FEA3C0C43401FBF400794
:1038B0000CF1605113F0FE4F70471CF0006F03D104
:1038C0000CF00041002070470CF0004343EA5070B8
:1038D00040EACC0010B500F05DF900BF0000009296
:1038E0004FEA0001FFF7D6BF4FF00041A1F50021DC
:1038F0004FF000007047000090EA010F48BF81F0D0
:10390000004100F19A81421A3CBF801A89184FEA9F
:10391000D052A2EBD1534FF07F4C1CEA410F18BF9D
:103920009CEA026F00F03B804FF0004C4CEA002014
:103930004CEA012121FA03FC10EB0C0C1ED202F11F
:10394000FF325FEA1C2040EBC25038BF70471CF0CA
:103950007F0F4FEA400C18BFBCF17F4F38BF704754
:10396000C3F12003994008BF20F00100BCF17F4F54
:1039700038BF7047A0F1C04000F052B94FEA3C0098
:10398000000A40EBC25028BF1CF0FF0F4FEA400C6A
:10399000E6D018BFBCF17F4F38BF7047EAE79CEA1A
:1039A000026F05D010EA5C0F08BF00F000407047BE
:1039B00010B500F0EFF800BF64FBBE3E10B5FFF796
:1039C00035FD0CBF0120002010BD10B5FFF72EFD06
:1039D00014BF0120002010BD10B5FFF7EBFD8CBF18
:1039E0000120002010BD10B5FFF7E4FD2CBF012021
:1039F000002010BD10B5FFF719FE94BF0120002074
:103A000010BD10B5FFF712FE34BF0120002010BD1D
:103A10004FF47F0C1CEAD0121EBF1CEAD11392EAAD
:103A20000C0F93EA0C0F00F0858090EA010F48BF5D
:103A300042F4807240F4000C41F400002CF07F410D
:103A400020F07F4000B5A2EB030281420FF2081C78
:103A5000ACEB504E9EF800E0C0F100004FEA4E0E75
:103A600000FB0EFC38BF49004FEA2C1C0CFB0EF388
:103A70004FEACE1E0EEB635E4FEA112C0EFB0CFCE0
:103A80004FEAC1214FEA1C5300FB031102F5FA0271
:103A90004FEA112C0EFB0CFC4FEA01314FEADC4CD3
:103AA00000FB0C1142EB2242C14228BF09184CEB2B
:103AB00003335DF804EB10EB410143EBC250B2F568
:103AC0007C0F38BF704729D512F0F00F1CBF00F1F2
:103AD000C04000F000407047008182838485868763
:103AE00088898B8C8D8E8F919293959697999A9CBD
:103AF0009D9FA0A2A3A5A7A8AAACAEB0B2B3B5B72C
:103B0000B9BCBEC0C2C5C7C9CCCED1D4D7D9DCDF01
:103B1000E2E6E9ECF0F3F7FAFE0000004FEA400CB1
:103B20000CF1807CBCF17E4F28BF7047B0F1C040E3
:103B300000F076B80CEAD11390EA010F48BF42F4C6
:103B40008072624538BF634507D213F47F0F16D0E9
:103B500080EA010000F00040704710B500F01AF84C
:103B6000097EFC3E00F005B880EA010000F000404C
:103B7000704780EA010000F0004000F051B812F4F4
:103B80007F0F04BF0248704780EA010000F048B888
:103B90000000C07F0EF1020E2EF0030E5EF8044B03
:103BA000244204D44FEA4102B2F17F4F11D84FEAC8
:103BB0004003B3F17F4F0CD80ED14FEAD07C0CEB11
:103BC0004C0C0CF1020CB2F17F4F08BF4CEBD17CD6
:103BD00004E04FF0080C01E04FEAD17C0CEB4C0301
:103BE00024FA03F404F00704B4F1040C06D20EEB3B
:103BF000840CBDE810404CF0010C6047DFE80CF08D
:103C0000070802024FF00040A0F5800010BD0846F2
:103C1000420018BFD2F1807288BF00F0004010BD92
:103C2000FF2141EAD050C0057047000090EA010F23
:103C300048BF81F000413FF566AE421A04D882F0D9
:103C40000042A0EB020011444FEAD052A2EBD15344
:103C50004FF07F4C1CEA410F18BF9CEA026F4AD01C
:103C60004FF0004C4CEA00204CEA012121FA03FC01
:103C7000B0EB0C0C0FD412F0FE0F36D05FEA4C0004
:103C80001DD5001240EBC25038BF70471CF03F0FEB
:103C900018BF70470BE05FEA1C20A2F1010240EB65
:103CA000C25038BF70471CF07F0F18BF7047C3F178
:103CB0002003994014BF401E20F0010070474FEAD6
:103CC0001223800808BF7047B0FA80FCA2EB0C02F8
:103CD000CCF1280C60FA0CF093EA122F04BF00EB31
:103CE000C25070474FEAC3707047130A5FEADC1096
:103CF00008BF7047F6E79CEA026F04D010EA5C0F39
:103D000008BF0020704710B5FFF744FF40DFF63EC4
:103D100081F0004070470000000000000000010238
:103D20000304060708090000000001020304000064
:103D30000200000004000000080000001000000065
:103D4000FDFFFFFFFBFFFFFFF7FFFFFFEFFFFFFFA1
:103D5000703D00080000002010000000280100084D
:103D6000803D000810000020800800004401000889
:103D700001000000100000000024F40050000000CA
:04000005080000ED02
:00000001FF
